:020000040800F2
:1000000000CB012079380008150300081703000809
:100010001B0300081F030008230300080000000062
:10002000000000000000000000000000270300089E
:1000300029030008000000002B0300082D0300081E
:100040009338000893380008933800089338000864
:100050009338000893380008933800089338000854
:100060009338000893380008933800089338000844
:100070009338000893380008933800087D2C000856
:100080009338000893380008933800089338000824
:100090009338000893380008933800089338000814
:1000A0009338000893380008933800089338000804
:1000B0009338000893380008256600089338000834
:1000C00093380008933800089338000893380008E4
:1000D00093380008ED37000893380008933800087B
:1000E00093380008933800089338000893380008C4
:1000F00093380008933800089338000893380008B4
:1001000093380008C5260008933800089338000883
:100110009338000893380008933800089338000893
:100120009338000893380008933800089338000883
:100130009338000893380008933800089338000873
:100140009338000893380008933800089338000863
:100150009338000893380008933800089338000853
:100160009338000893380008933800089338000843
:100170009338000893380008933800089338000833
:10018000933800089338000800F002F800F06DF88A
:100190000AA090E8000C82448344AAF10107DA45E2
:1001A00001D100F062F8AFF2090EBAE80F0013F0C7
:1001B000010F18BFFB1A43F001031847848A01009E
:1001C000A48A01000A444FF0000C10F8013B13F020
:1001D000070408BF10F8014B1D1108BF10F8015BA0
:1001E000641E05D010F8016B641E01F8016BF9D193
:1001F00013F0080F1EBF10F8014BAD1C0C1B09D1EA
:100200006D1E58BF01F801CBFAD505E014F8016B5B
:1002100001F8016B6D1EF9D59142D6D370470000ED
:100220000023002400250026103A28BF78C1FBD8FF
:10023000520728BF30C148BF0B607047642912F0D5
:10024000A583752912F0A283782912F0D983632936
:1002500012F07A87732912F07F87002070471FB54C
:1002600013F053F81FBD10B510BD13F017F8114669
:10027000FFF7F5FF00F010F813F035F803B4FFF7BF
:10028000F2FF03BC03F04EFA30BF72B6704762B69D
:10029000704780F3088870474FF4A06003F00CFBB0
:1002A000A82003F0BDF94FF4E13003F049FA00F063
:1002B00047F9154841685420884703F0E7F800F0F3
:1002C0005FF900F08BFA02F029FD2821084602F0C0
:1002D0005EFE322002F072FE002005F06AFD022070
:1002E00005F067FD0AF060F908490122086808A1D5
:1002F00008F0F2FA00BF0BF08BF80028FBD101E008
:100300000BF0F4FDFCE7000014020020CCC3012038
:10031000303A0000704700BFFEE700BFFEE700BFB5
:10032000FEE700BFFEE77047704770477047000068
:100330000CB50020019000907648006840F48030B1
:100340007449086000BF7348006800F400300090F2
:100350000198401C0190009818B90198B0F5A04F81
:10036000F1D16C48006800F4003010B10120009019
:1003700001E0002000900098012846D165484030F7
:10038000006840F08050634940310860624800686E
:1003900040F44040604908605E48083000685D49AC
:1003A000083108600846006840F4004008600846CC
:1003B000006840F4A05008605848091F0860081FF2
:1003C000006840F08070091F086000BF5148006855
:1003D00000F000700028F9D040F205705049086024
:1003E0004C480830006820F003004A490831086092
:1003F0000846006840F00200086000BF4548083029
:10040000006800F00C000828F8D10CBD10B5454874
:10041000006840F47000434908603E48006840F0BE
:1004200001003C49086000203A4908310860394819
:1004300000683D490840374908603C48091D08608C
:10044000081F006820F48020091F0860002031493F
:100450000C310860FFF76CFF4FF0006031498039C4
:10046000086010BD70B50020002202230024022184
:10047000284D08352D6805F00C0020B1042806D061
:10048000082834D107E02A4D2A4E356033E02A4D42
:10049000284E35602FE01F4D2D1D2D68C5F380546B
:1004A0001C4D2D1D2D6805F03F0154B1224DB5FBAB
:1004B000F1F5184E361D3668C6F3881605FB06F2B0
:1004C00009E01B4DB5FBF1F5124E361D3668C6F33B
:1004D000881605FB06F20F4D2D1D2D68C5F301454D
:1004E0006D1C6B00B2FBF3F5124E356003E0104D4E
:1004F000104E356000BF00BF064D08352D68C5F3AE
:1005000003150E4E705D0B4D2D68C540094E3560CC
:1005100070BD0000003802400070004008544007E1
:10052000003C024088ED00E0FFFFF6FE10300024A2
:100530000024F4000000002000127A0004000020D3
:100540001CB50121202003F04BFD4FF4C06000904A
:1005500001208DF8040000208DF8060003208DF89E
:10056000050001208DF807006946044803F09AFA57
:100570004FF4C061014803F011FB1CBD00140240A0
:100580001CB50121112003F02BFD1C200090002040
:100590008DF8040003208DF8050001208DF8070078
:1005A0006946354803F07EFA0120009002208DF85C
:1005B00007006946314803F075FA1CBD10B50446C2
:1005C00014B101202E4908702D480078002837D03A
:1005D0001021294803F0C8FA78B10821264803F011
:1005E000C3FA50B10421244803F0BEFA28B1012116
:1005F000224803F0B9FA012822D10A2003F072F848
:1006000000201F49087010211B4803F0ADFA08B9FB
:10061000012010BD0821184803F0A6FA08B90220ED
:10062000F7E70421144803F09FFA08B90320F0E724
:100630000121124803F098FA01281BD10420E8E7B1
:1006400010210D4803F090FA012813D108210A481F
:1006500003F08AFA01280DD10421074803F084FA37
:10066000012807D10121054803F07EFA10B90120C5
:10067000034908700020CCE700100240000002404F
:100680001400002010B5044600BF0221414805F0C7
:1006900087F80028F9D021463E4805F038F800BF19
:1006A00001213C4805F07CF80028F9D0394805F0D4
:1006B0002BF8C0B210BD00B587B00121084603F089
:1006C0008FFC0121080303F0E5FC3820059002208F
:1006D0008DF8180000208DF81A0003208DF81900FD
:1006E00001208DF81B0005A92B4803F0DBF905223A
:1006F0000321294803F061FA05220421264803F06A
:100700005CFA05221146244803F057FA0121080338
:1007100003F015FD00214FF4805003F010FD002080
:10072000ADF800004FF48270ADF802000020ADF883
:1007300004000220ADF806000120ADF808004002D8
:10074000ADF80A003820ADF80C000020ADF80E001E
:100750000720ADF8100069460E4804F05DFE012147
:100760000C4804F053FFFF20FFF78CFF07B000BDDB
:1007700010B50446074800884FF6C7710840054980
:10078000088008460088204308800121014804F0C1
:100790003DFF10BD003001400004024010B50024B0
:1007A0000020D84908609020FFF76CFF0020FFF779
:1007B00069FF0020FFF766FF0020FFF763FFFF20BF
:1007C000FFF760FF44EA0024FF20FFF75BFF0443CC
:1007D0000120CD49C1F8B802204610BD1CB5012149
:1007E000022003F0FDFB0121402003F0F9FB4FF450
:1007F0008040009001208DF8040000208DF8060054
:1008000003208DF8050001208DF807006946BF48D8
:1008100003F048F9802000906946BD4803F042F992
:100820008021BB4803F0BAF90120B6490860FFF700
:1008300042FF0020FFF79CFFFFF7B0FFB54908809B
:100840001CBD10B500240020AE4908600520FFF74C
:1008500019FFFF20FFF716FF04460120AA49C1F83F
:10086000B802204610BD10B504460020A549086016
:100870000120FFF707FF2046FFF704FF0120A249F0
:10088000C1F8B80210BD10B500209E4908600620CE
:10089000FFF7F8FE01209C49C1F8B80210BD10B561
:1008A0000020984908600420FFF7ECFE01209649DB
:1008B000C1F8B80210BD2DE9F04106460C461746B6
:1008C0000020904908600320FFF7DCFEC4F30740D6
:1008D000FFF7D8FEC4F30720FFF7D4FEE0B2FFF71E
:1008E000D1FE002505E0FF20FFF7CCFE7055681C07
:1008F00085B2BD42F7DB012082490860BDE8F08186
:1009000010B500BFFFF79DFF00F001000028F9D1EE
:1009100010BD2DE9F04106460C461746FFF7B3FF20
:100920000020784908600220FFF7ACFEC4F30740BE
:10093000FFF7A8FEC4F30720FFF7A4FEE0B2FFF71D
:10094000A1FE002504E0705DFFF79CFE681C85B2E7
:10095000BD42F8DB01206B490860FFF7D1FFBDE81D
:10096000F0812DE9F04107460E461446F0B2C0F57D
:100970008075AC4200DC254612E02A4631463846F6
:10098000FFF7C7FFAC4200D10BE02F442E44601BA1
:1009900084B2B4F5807F02DD4FF4807500E0254617
:1009A000EBE700BFBDE8F08110B5044621465AA030
:1009B00011F090FF2403FFF766FFFFF7A1FF00206F
:1009C000504908602020FFF75DFEC4F30740FFF7A1
:1009D00059FEC4F30720FFF755FEE0B2FFF752FEC1
:1009E00001204949C1F8B802FFF78AFF10BD2DE97F
:1009F000F05F81460F461646DFF824B14FEA1738FC
:100A0000C7F30B0ACAF58054A64200DC344644E022
:100A10004FEA08314FF480525846FFF74CFF00254B
:100A200008E00AEB05001BF80000FF2800D003E0F7
:100A3000681C85B2A542F4DB00BFA54216DA404629
:100A4000FFF7B2FF002507E019F8050005EB0A01E2
:100A50000BF80100681C85B2A542F5DB4FEA0831AE
:100A60004FF480525846FFF77CFF04E02246394697
:100A70004846FFF776FFA64200D10FE008F10108D3
:100A80004FF0000AA1442744301B86B2B6F5805FC0
:100A900002DD4FF4805400E03446B9E700BFBDE802
:100AA000F09F10B5FFF7EFFEFFF72AFF0020154972
:100AB0000860C720FFF7E6FD01201349C1F8B8021E
:100AC000FFF71EFF10BD10B500200E490860B920C9
:100AD000FFF7D8FD01200C49C1F8B802032002F04D
:100AE000B9FD10BD10B5002006490860AB20FFF726
:100AF000C9FD01200449C1F8B802032002F0AAFD93
:100B000010BD0000B8824042008040420004024014
:100B1000001802401600002066653A25780D0A008C
:100B2000340300200020FE490860091D0860091DEB
:100B30000860091D0860FA4924310860091D086031
:100B4000091D0860F748F649383108600020091D82
:100B50000860704701460020012900D011B9F24B0E
:100B6000197000E0262070470146ED4A121D1068FA
:100B700020F0FF0008431060704770B5044606E09F
:100B8000E7483430056805F0450000B100E0F7E7BC
:100B900000BF042004F0FCFE20B1042004F003FF99
:100BA000032070BD012004F0F3FE20B1012004F009
:100BB000FAFE0120F5E7DA4810300068A04201D0C3
:100BC0001020EEE740F2FF5004F0EDFED448143060
:100BD000006808210840C0B2E3E72DE9FC41074660
:100BE0000D46002600240020009001900820CF49E7
:100BF000086010204860402088600020C8604FF4E2
:100C000080600861084604F030FE1020FFF7B5FF51
:100C1000044614B12046BDE8FC81C54800880004A4
:100C2000C249086037204860402088600020C860C2
:100C30004FF480600861084604F017FE3720FFF784
:100C40009CFF04460CB12046E5E74FF0FF30B94960
:100C5000086008204860302088600220C8600020BA
:100C6000086101204861084604F02BFE0020AF49CE
:100C7000086033204860402088600020C8604FF43E
:100C800080600861084604F0F0FD3320FFF775FF2F
:100C900004460CB12046BEE70DE04FF4001004F00E
:100CA00077FE40B19E48803000684DF82600761CE3
:100CB000022E00D307E09A483430006840F22A61DF
:100CC00008400028E9D000BF082004F061FE20B1F0
:100CD000082004F068FE04209DE7022004F058FE7E
:100CE00020B1022004F05FFE022094E7202004F0EF
:100CF0004FFE20B1202004F056FE06208BE74FF473
:100D0000007004F045FE28B14FF4007004F04BFE73
:100D1000072080E740F2FF5004F045FE00980006EF
:100D2000009901F47F4140EA0120009901F47F011C
:100D300040EA1120009940EA1160686001980006BD
:100D4000019901F47F4140EA0120019901F47F01FA
:100D500040EA1120019940EA1160286020465AE7D4
:100D60007CB50546002400200090019000260DB1BE
:100D7000022600E000266A481430006800F0007087
:100D800008B10E207CBD6A49098888B26946FFF720
:100D900024FF04460CB12046F4E7019800F48020BB
:100DA00060B36348008800046049086037204860E9
:100DB000402088600020C8604FF4806008610846C9
:100DC00004F053FD3720FFF7D8FE04460CB120464F
:100DD000D8E756480660062054494860402088609D
:100DE0000020C8604FF480600861084604F03DFDB3
:100DF0000620FFF7C2FE04462046C3E72520C1E7D0
:100E000070B5044600254C480078032802D12725F8
:100E1000284670BD4848007838B147480078012816
:100E200003D045480078022819D1B4F5805F02D17B
:100E300027252846EDE7E0B2FFF792FF054675B992
:100E40003748001D006820F4C0503549091D08606E
:100E50000846006820430860084600680860284685
:100E6000D7E710B504463148046007202F49486091
:100E7000402088600020C8604FF480600861084608
:100E800004F0F3FC0720FFF778FE10BDF0B5014633
:100E900000200022284B1B7881F85630244B1B88F9
:100EA000A1F85430254B1B681A0E93090B70C2F33E
:100EB00083034B7002F003038B70204B1B68C3F35A
:100EC0000742CA701D4B1B88C3F307220A711B4BD4
:100ED0001A784A715B681A0E1301CB80174B5B6856
:100EE000C3F30742CB8843EA1213CB8002F00F030F
:100EF0000B72124B9B88C3F30722D3094B72C2F3C8
:100F000080138B72C2F34013CB72C2F300130B73C6
:100F100000234B73084B1B78C3B1074B1B780FE0C2
:100F2000002C0140FF07C0002000002050130020CB
:100F30001C00002064130020180000207C130020F7
:100F4000012B03D0FE4B1B78032B4FD193071B0DB6
:100F50000B61FC4B1A790B6943EA82030B61F94B75
:100F60009B681A0E0B6943EA92130B61C2F3C2032A
:100F70000B7502F007034B75F24B9B68C3F30742F6
:100F800053098B75C2F38203CB7593075B0F0B7606
:100F9000EC4B1B89C3F307220B7E43EAD2130B767B
:100FA0000B695B1C0024C1E912340B7E9B1C0124DD
:100FB00004FA03F3DC17D1E91256A5FB037C06FB08
:100FC00003C305FB0433C1E912730C7A0123A34068
:100FD0000B650024D1E912650B6DA6FB037C05FBB4
:100FE00003C306FB0433C1E912732EE0D44B1B7814
:100FF000022B2AD1D34B1A7993069B0A0B61D14B52
:101000009B681A0E0B6943EA02230B61CD4B9B6868
:10101000C3F307420B6913430B61CA4B1B89C3F32C
:1010200007220B695B1C4FF40074A3FB04464FF4CA
:1010300080630025A4FB037C06FB03C304FB05338C
:10104000C1E912734FF400730B65C2F3801301F80A
:10105000193F93065B0E4B70BA4B1A7A4B7843EAF2
:10106000D2134B7002F07F038B70B64BDB681A0E05
:10107000D309CB70C2F341130B71C2F382034B71DE
:1010800093071B0F8B71AF4BDB68C3F307428B7960
:1010900043EA92138B71C2F34013CB7100230B729E
:1010A00002F001034B72A74B9B89C3F30722D309BC
:1010B0008B72C2F38013CB72C2F340130B73C2F373
:1010C00000134B73C2F381038B7302F00303CB73E2
:1010D0009C4B1A7B53080B7401234B749A4B1B686F
:1010E0001A0ECA741939984B1B68C3F307421402CD
:1010F000CC85954B1B88C3F30722CB8D1343CB853F
:10110000914B1A7814060C635B681A0E0B6B43EA5A
:1011100002440C638C4B5B68C3F307420B6B43EADE
:1011200002240C63884B9B88C3F307220B6B134389
:101130000B63854B1A7934235A54834B9B681A0EE0
:1011400035235A54804B9B68C3F3074214068C63C3
:101150007D4B1B89C3F307228B6B43EA02448C63EC
:10116000794B1A7A8B6B43EA02248C63764BDB68EB
:101170001A0E8B6B13438B63734BDB68C3F307420D
:101180003C235B5C43EA12143C235C5413071C0DA4
:10119000CC876D4B9B89C3F30722CB8F1343CB873F
:1011A000694B1A7B540840235C54012441235C544E
:1011B000F0BD70B500264FF4803505E06348046843
:1011C00004F0450000B103E02800A5F10105F5D1C8
:1011D00000BF15B104F0040028B10326042004F078
:1011E000E2FB304670BD012004F0D2FB18B10126AD
:1011F000012004F0D8FB40F2FF5004F0D4FB30464D
:10120000F0E72DE9F04105460E464FF0000805E0F5
:101210004E48076807F0450000B100E0F8E700BF5E
:10122000042004F0B5FB28B1042004F0BCFB03202B
:10123000BDE8F081012004F0ABFB20B1012004F0F7
:10124000B2FB0120F4E7414824380068A84201D0ED
:101250001020EDE740F2FF5004F0A5FB3B4820389A
:10126000046804F4604018B9200C30804046DFE781
:1012700004F4005008B11320DAE704F4804008B108
:101280001020D5E704F4004008B10F20D0E7404615
:10129000CEE738B500240120009004F0E0FA10B940
:1012A0002524204638BD26480078042825D0002073
:1012B0002749086002204860C02088600020C8607C
:1012C0004FF480600861084604F0CFFAFFF771FF21
:1012D00004460CB12046E5E71C48203800681A494E
:1012E00008601A481C3800684860184818380068B8
:1012F0008860164814380068C8601148007858B1F2
:101300000F480078012807D00D480078062803D040
:101310000B480078022821D100200D4908600320E5
:101320004860402088600020C8604FF480600861F9
:10133000084604F09AFA69460320FFF762FF09E0C5
:10134000180000207C1300208C130020342C014056
:101350005013002004460CB12046A3E7FE48007855
:10136000032816D1BDF800000004FC4908600320E2
:101370004860402088600020C8604FF480600861A9
:10138000084604F072FAFFF714FF04460CB1204639
:1013900088E7F148007804282AD0BDF80000F04919
:1013A0000860BDF800000004EC49086009204860AE
:1013B000C02088600020C8604FF480600861084643
:1013C00004F053FAFFF7F5FE04460CB1204669E736
:1013D000E4480068E4490860E248001D006848608D
:1013E000E048083000688860DE480C300068C8605B
:1013F000002057E710B506E0DA482030046804F012
:10140000450000B100E0F7E700BF042004F0C0FA97
:1014100020B1042004F0C7FA032010BD40F2FF50B1
:1014200004F0C1FA0020F8E770B500264FF48035CB
:1014300006E0CC482030046804F0450000B103E029
:101440002800A5F10105F4D100BF15B104F0040096
:1014500028B10326042004F0A6FA304670BD04F03B
:10146000400018B10026402004F09DFA3046F5E710
:1014700070B500254FF4803404E0802004F088FA31
:1014800000B103E02000A4F10104F6D100BF0CB9C3
:10149000032070BD40F2FF5004F085FA2846F8E7BB
:1014A0002DE9F0470027002400260025A046A1468C
:1014B0007620AE4908750020086048608860C860E2
:1014C0000861084604F0A7F9032004F0C4F9A54810
:1014D0001038006840F48070A2491039086000BFDD
:1014E00012E000209D49086048608860C8604FF4A1
:1014F00080600861084604F0B8F9FFF7B9FF0446B8
:1015000004B903E0781CC7B24A2FEADB00BF14B16C
:101510002046BDE8F0874FF4D57090490860082058
:101520004860402088600020C8604FF480600861F7
:10153000084604F09AF9FFF777FF044624B9012022
:10154000854908704FF080490020844908603720A1
:101550004860402088600020C8604FF480600861C7
:10156000084604F082F93720FFF707FB0446002CF9
:101570004BD134E000207949086037204860402092
:1015800088600020C8604FF480600861084604F05D
:101590006CF93720FFF7F1FA04460CB12046B8E7A2
:1015A000734849EA00006D490860292048604020DE
:1015B00088600020C8604FF480600861084604F02D
:1015C00054F9FFF717FF04460CB12046A1E7654820
:1015D0000668012080EAD67080F001086D1CB8F121
:1015E000000F03D14FF6FF708542C3D34FF6FF7053
:1015F000854202D31B2420468BE706F0804006007C
:1016000032D00220544908702EE01CE0594853495A
:10161000086001204860402088600020C8604FF4C6
:1016200080600861084604F020F9FFF7E3FE0446F5
:101630000CB120466DE74B480668012080EAD67061
:1016400080F001086D1CB8F1000F03D14FF6FF7058
:101650008542DBD34FF6FF70854202D31B24204620
:1016600057E703203C490870204652E73EB5002466
:1016700000250121404802F0B3FC0121C80202F01C
:1016800009FD0121C80202F05AFD4FF4F850019003
:1016900002208DF808008DF8090000208DF80A005E
:1016A00001208DF80B0001A9344802F0FBF9042059
:1016B000019001A9324802F0F5F90C2208212F48C7
:1016C00002F07BFA0C2209212C4802F076FA0C2257
:1016D0000A212A4802F071FA0C220B21274802F055
:1016E0006CFA0C221146254802F067FA0C220221FE
:1016F000234802F062FA00214FF4006002F01FFD5F
:10170000FFF710FA31208DF8000000208DF801005D
:101710008DF8020001208DF80300684602F0D1F830
:10172000FFF7BEFE044614B9FFF7B3FD04461CB92B
:101730001448FFF7ABFB044634B91249B1F8541012
:101740000804FFF78EFB044624B94FF40060FFF74E
:1017500057FB0446E4B117E01800002050130020A6
:101760001C000020142C01407C13002038130020A2
:10177000000010800080FF800C0040000008024044
:10178000000C0240A0130020FE480078032812D16C
:10179000FD4890F8560020B1FB4890F8560001280B
:1017A00001D1022500E000252846FFF7DDF90020E1
:1017B000FFF7D0F9044620463EBD10B5002004F0E6
:1017C0004AF8002010BD70B590B004460E4615468C
:1017D00000BFEE4804F02BFA0028FAD1EB4804F0E1
:1017E000FDF84FF000600190E948029003940495E1
:1017F0000020059006904FF48060079080000890CC
:101800008000099000200A904FF440300B90042093
:101810000C9003200D904FF400000E9080100F905C
:1018200001A9DA4804F07CF92021D84804F0C8F96D
:101830000121D64804F0AEF910B070BD0146002079
:1018400002E04910421CD0B20129FAD170472DE9BB
:10185000F84F8146174698460A9C4FF0000AD34637
:101860004D464FF0FF36B9F1000F02D12620BDE8FA
:10187000F88F0020C64954390860C2480078022811
:1018800005D10402780A40EAC8574FEA68280020C8
:10189000C04988604860401E0860012048610020FF
:1018A000C8600861084604F00CF8B9486C38006854
:1018B00000F0007008B10E20D9E7002C21DDB4F54E
:1018C000006F1EDC601E2040D8B92046FFF7B6FF2F
:1018D0000090B14804601020AF4948604020886003
:1018E0000020C8604FF480600861084603F0BDFF27
:1018F0001020FFF742F98246BAF1000F03D050469C
:10190000B5E72620B3E700980001A24988600846A1
:1019100044604FF0FF300860012048610220C86039
:1019200000200861084603F0CCFF9B4807601120A7
:1019300099494860402088600020C8604FF480606A
:101940000861084603F091FF1120FFF716F982465F
:10195000BAF1000F01D0504689E79048007800287E
:101960005AD1FEF792FC17E04FF4004004F010F853
:1019700070B14FF0000B05E08548006845F82B007A
:101980000BF1010BBBF1080FF6D32035844E03E0B9
:101990000EB904206BE7761E7D484C38006840F293
:1019A0002A6108400028DFD0082003F0F1FF20B1B1
:1019B000082003F0F8FF042059E7022003F0E8FFB5
:1019C00020B1022003F0EFFF022050E7202003F0B7
:1019D000DFFF20B1202003F0E6FF062047E74FF4A9
:1019E000007003F0D5FF28B14FF4007003F0DBFF67
:1019F00007203CE703E06648006828602D1D4FF48F
:101A0000001003F0C5FF0028F5D1FEF740FC40F2BE
:101A1000FF5003F0C8FF39E060480078012835D155
:101A20000020604908706049087060490870584893
:101A30004438006840F22A31084355494439086067
:101A400053485438006840F0080051495439086040
:101A5000002221464846FFF7B6FE00E0761E4B48BE
:101A60005838006800F0006038B95048007820B954
:101A70004C48007808B9002EF0D10EB90420F6E6E3
:101A80004848007810B1474890F800A05046EEE66C
:101A90002DE9FF5F17469846DDE90E464FF0000935
:101AA000CA464FF0FF354249009808600020384987
:101AB0005439086033480078022805D10402780AB6
:101AC00040EAC8574FEA68280020324988604860D9
:101AD000401E0860012048610020C8600861084677
:101AE00003F0EFFE2A486C38006800F0007018B16F
:101AF0000E2004B0BDE8F09F002C21DDB4F5006F8E
:101B00001EDC601E2040D8B92046FFF797FE8346B2
:101B1000214804601020204948604020886000204F
:101B2000C8604FF480600861084603F09EFE1020F4
:101B3000FFF723F88146B9F1000F03D04846D8E7F4
:101B40002620D6E7012E6ED906FB04F0B0F1007F07
:101B500001D32620CDE74FEA0B100E49886006FB23
:101B600004F048604FF0FF30086001204861022017
:101B7000C86000200861084603F0A3FE064807601D
:101B8000122017E018000020A01300205864024023
:101B9000802C0140641300205013002020000020FE
:101BA000FFFF7F00220000202100002023000020F2
:101BB00024000020F9494860402088600020C86067
:101BC0004FF480600861084603F04FFE1220FEF7D4
:101BD000D4FF8146B9F1000F01D0484689E7F048AB
:101BE000007800287ED1FEF750FB1EE04FF4004045
:101BF00003F0CEFEA0B14FF0000A07E0E94800680C
:101C0000E949096841F82A000AF1010ABAF1080F06
:101C1000F4D3E54800682030E3490860E34D04E070
:101C200015B9042065E7AEE06D1EDE484C3800684B
:101C300040F22A3108400028D8D0082003F0A8FE3E
:101C400020B1082003F0AFFE042052E7022003F089
:101C50009FFE20B1022003F0A6FE022049E72020CB
:101C600003F096FE20B1202003F09DFE062040E701
:101C70004FF4007003F08CFE28B14FF4007003F0B5
:101C800092FE072035E709E0C6480068C6490968A2
:101C90000860C5480068001DC34908604FF4001083
:101CA00003F076FE0028EFD14FF4807003F070FE51
:101CB00020B3BF48007838B1BD480078012803D070
:101CC000BB480078022819D10020B44908600C20D4
:101CD0004860402088600020C8604FF48060086140
:101CE000084600E011E003F0C0FD0C20FEF745FFC0
:101CF0008146B9F1000F01D04846FAE6FEF7C7FA6F
:101D000040F2FF5003F04FFE3DE0A5480078012867
:101D100039D10020A74908700120A7490870002088
:101D2000A64908709F484438006840F22A310843A9
:101D30009C49443908609B485438006840F00800CA
:101D400098495439086006FB04F100220098FFF717
:101D50003AFD00E06D1E9A48006800F0006008B986
:101D6000002DF7D10DB90420C3E600BF93480078D9
:101D700018B9904800780028F8D08E48007810B143
:101D80008C4890F800904846B3E61CB50446002005
:101D9000019000908B4800880004804908600D2065
:101DA0004860402088600020C8604FF4806008616F
:101DB000084603F05AFD7B484C380068009003E069
:101DC00078484C3800680090009800F045000028E2
:101DD000F6D0012003F0DCFD20B1012003F0E3FD8B
:101DE00001201CBD042003F0D3FD20B1042003F02A
:101DF000DAFD0320F5E76B48703800680D2801D044
:101E00001020EEE740F2FF5003F0CDFD65486C383E
:101E1000006801900198C0F3432020700020E0E7A3
:101E20002DE9FF5F86B017469846149D00260020D6
:101E3000059004900024814603908246029001950B
:101E4000DDF818B0DDF818B0BBF1000F03D1262083
:101E50000AB0BDE8F09F00205249543908605A4941
:101E600088604860401E0860012048610020C8600A
:101E70000861084603F025FD4A486C38006800F008
:101E8000007008B10E20E3E749480078022805D128
:101E90000502780A40EAC8574FEA6828002D1FDD7E
:101EA000B5F5006F1CDC681E2840C8B92846FFF74E
:101EB000C5FC05903948056010203849486040202D
:101EC00088600020C8604FF480600861084603F015
:101ED000CCFC1020FEF751FE06461EB13046B7E797
:101EE0002620B5E73748008800042C4908600D20FB
:101EF0004860402088600020C8604FF4806008611E
:101F0000084603F0B2FC0D20FEF737FE06460EB180
:101F100030469DE723486C38006803904FF0FF344B
:101F20001CE0641E2748008800041C4908600D203E
:101F30004860402088600020C8604FF480600861DD
:101F4000084603F092FC0D20FEF717FE06460EB180
:101F500030467DE713486C3800680390039800F41E
:101F6000807008B9002CDCD10CB9292070E70B482F
:101F70000760182009494860402088600020C86038
:101F80004FF480600861084603F06FFC1820FEF7EC
:101F9000F4FD0646D6B130465AE700005013002043
:101FA00020000020802C014024000020FFFF7F0043
:101FB0001800002022000020210000202300002023
:101FC000006402401C000020641300200020F84937
:101FD000087005980001F7498860084645604FF091
:101FE000FF300860012048610020C8600861084691
:101FF00003F067FC4FF0FF34EF48007800287CD1F5
:10200000FEF743F943E04FF4804003F0C1FCC8B34E
:102010000198A0EB0900202821D20198A0EB09002B
:1020200000F0030020B90198A0EB0900800804E04B
:102030000198A0EB09008008401C02904FF0000AB4
:1020400009E0DE49DBF8000008600AF1010A0BF143
:10205000040B09F1040902988245F2D30FE04FF016
:10206000000A05E05BF82A00D44908600AF1010A79
:10207000BAF1080FF6D30BF1200B09F120096FF02C
:10208000404404E0FFE70CB90420E1E6641ECB48BD
:102090004C38006840F21A6108400028B3D008208C
:1020A00003F076FC20B1082003F07DFC0420CFE68D
:1020B000022003F06DFC20B1022003F074FC02202A
:1020C000C6E6102003F064FC20B1102003F06BFC86
:1020D0000520BDE64FF4007003F05AFC30B14FF418
:1020E000007003F060FC0720B2E606E0FEF7CFF8D0
:1020F00040F2FF5003F057FC43E0AF48007801285E
:102100003FD10020AE490870A9490870AD49087058
:10211000AA484438006840F21A310843A7494439B4
:102120000860402229460698FFF74DFBA348543823
:10213000006840F00800A1495439086000E0641EBE
:10214000A148006800F0006008B9002CF7D11CB964
:10215000FFF78CFA04207BE64FF0FF3400E0641EAA
:102160009848007820B99648007808B9002CF6D134
:102170000CB904206CE69248007810B190480078C1
:1021800066E640F2FF5003F00EFC04A8FFF7FDFDE9
:10219000064603E004A8FFF7F8FD06463EB99DF8A1
:1021A00010000728F6D09DF810000628F2D030461F
:1021B0004EE62DE9FF5F84B0DDE9124700260020DE
:1021C00003900290002580468146019007FB04FBA6
:1021D000DDF810A0DDF810A0BAF1000F03D1262021
:1021E00008B0BDE8F09F0020744954390860714977
:1021F00088604860401E0860012048610020C86077
:102200000861084603F05DFB6C486C38006800F01C
:10221000007008B10E20E3E76C480078022808D16E
:102220000402DDE90601400A40EAC1504912CDE945
:102230000601002C1FDDB4F5006F1CDC601E204081
:10224000C8B92046FFF7FAFA0390614804601020ED
:102250005F494860402088600020C8604FF480607B
:102260000861084603F001FB1020FEF786FC0646D5
:102270001EB13046B4E72620B2E7012F6FD907FB25
:1022800004F0B0F1007F01D32620A9E74F48007881
:1022900038B14E480078012803D04C480078022815
:1022A0002DD14C4800880004494908603720486017
:1022B000402088600020C8604FF4806008610846B4
:1022C00003F0D3FA3720FEF758FC06460EB130462D
:1022D00086E73F48076017203D49486040208860F6
:1022E0000020C8604FF480600861084603F0BDFA22
:1022F0001720FEF742FC06460EB1304670E734491F
:102300000698086019204860402088600020C86056
:102310004FF480600861084603F0A7FA1920FEF721
:102320002CFC06460EB130465AE7039800012149BD
:10233000886007FB04F048604FF0FF300860012020
:1023400048610020C8600861084603F0BAFA1A48DC
:102350000078002872D1451EFDF797FF54E0F8E0A1
:102360004FF4804003F014FBB0B3ABEB080020281F
:1023700033D2ABEB080000F0030018B9ABEB080058
:10238000800803E0ABEB08008008401C01904FF090
:10239000000909E00949DAF80000086009F10109BB
:1023A0000AF1040A08F1040801988145F2D324E0F7
:1023B000210000206413002020000020802C014018
:1023C00022000020230000200064024018000020AA
:1023D000501300201C00002012E04FF0000905E01F
:1023E0005AF82900F849086009F10109B9F1080F04
:1023F000F6D30AF1200A08F120086FF0404503E007
:102400000DB90420ECE66D1EEF484C38006840F230
:102410001A3108400028A3D0082003F0B9FA20B1EF
:10242000082003F0C0FA0420DAE6022003F0B0FA34
:1024300028B1022003F0B7FA0220D1E640E01020D4
:1024400003F0A6FA20B1102003F0ADFA0520C7E68C
:102450004FF4007003F09CFA28B14FF4007003F0C1
:10246000A2FA0720BCE64FF4807003F091FA00B3A3
:10247000D648007838B1D5480078012803D0D34831
:102480000078022815D10020D14908600C2048604E
:10249000402088600020C8604FF4806008610846D2
:1024A00003F0E3F90C20FEF768FB06460EB1304658
:1024B00096E6FDF7ECFE40F2FF5003F074FA48E0B8
:1024C000C4480078012844D10020C3490870012085
:1024D000C24908700020C2490870BB4844380068EF
:1024E00040F21A310843B8494439086007FB04F147
:1024F00040220498FFF767F9B3485438006840F069
:102500000800B149543908604FF0FF3500E06D1EF6
:10251000B448006800F0006008B9002DF7D11DB97B
:10252000FFF7A4F804205BE64FF0FF3500E06D1ED6
:10253000AB48007820B9A848007808B9002DF6D13A
:102540000DB904204CE6A448007810B1A2480078E8
:1025500046E640F2FF5003F026FA02A8FFF715FC0A
:10256000064603E002A8FFF710FC06463EB99DF8B8
:1025700008000728F6D09DF808000628F2D030465B
:102580002EE610B54FF4807003F002FA88B393483A
:102590000078012814D100208D4908600C20486083
:1025A000402088600020C8604FF4806008610846C1
:1025B00003F05BF90C20FEF7E0FA8749087002E0AF
:1025C00000208549087080484838006840F48070D1
:1025D0007D4948390860081D00684CF23A3188434B
:1025E00079494439086001207D4908707A480078AB
:1025F00010BDFFE7022003F0CBF978B1022003F011
:10260000D2F97148443800684CF23A3188436E4937
:1026100044390860022070490870E9E7082003F097
:10262000B7F978B1082003F0BEF96748443800686C
:102630004CF23A31884364494439086004206649C1
:102640000870D5E7202003F0A3F978B1202003F02B
:10265000AAF95D48443800684CF23A3188435A4937
:102660004439086006205C490870C1E7102003F077
:102670008FF978B1102003F096F953484438006878
:102680004CF23A3188435049443908600520524998
:102690000870ADE74FF4007003F07AF980B14FF4A1
:1026A000007003F080F94848443800684CF23A3131
:1026B000884345494439086007204749087097E72F
:1026C000002095E710B5FFF75CFF10BD70B504461C
:1026D000002514B92625284670BD4348008800040B
:1026E0003B4908600D204860402088600020C86099
:1026F0004FF480600861084603F0B7F80D20FEF73C
:102700003CFA05460DB12846E6E72F486C380068CC
:1027100020602846E0E708B5002000906846FFF7F3
:10272000D5FF08B1FF2008BD0098C0F34320FAE7A9
:102730002DE9FE4F83460E4691460020029000256B
:1027400034462248007818B1680240EAD455640241
:102750000BF00300F0B14FF0000A18E04FF40070E6
:1027600000904FEA4A20071945EBE0733A461F48AC
:10277000FFF76DF802904FF400721C49584610F0B4
:10278000C9FA0BF5007B0AF1010000F0FF0ACA4507
:10279000E4DB16E0B9F1010F09D14FF400702246D5
:1027A0002B4600905846FFF752F8029009E04FF48C
:1027B000007022462B46CDE900095846FFF768F91C
:1027C00002900298BDE8FE8F802C01401800002086
:1027D00050130020200000202200002021000020B3
:1027E00023000020006402401C000020F813002099
:1027F0002DE9FE4F064689469246002002900025AC
:102800004C462148007818B1680240EAD455640269
:1028100006F00300F0B14FF0000B18E04FF4007227
:1028200031461A4810F076FA4FF4007000904FEAE3
:102830004B20071945EBE0733A461448FFF7F0FACE
:10284000029006F500760BF1010000F0FF0BD34576
:10285000E4DB16E0BAF1010F09D14FF40070224613
:102860002B4600903046FFF7DBFA029009E04FF468
:10287000007022462B46CDE9000A3046FFF799FC4E
:1028800002900298BDE8FE8F18000020F813002087
:102890001CB50121022001F0A3FB4FF44070009011
:1028A00001208DF8040000208DF8060003208DF82B
:1028B000050001208DF807006946894801F0F2F80B
:1028C0000120884908608849C1F8A4021CBD10B5E0
:1028D0008348006820F44020814908600846006869
:1028E00040F48020086001207E49091D08607E496F
:1028F000C1F8A002042000F0ADFE00207949091DB6
:102900000860042000F0A6FE00207749C1F8A0026C
:1029100010BD10B57248006820F44020704908606E
:102920000846006840F48020086000206D49086077
:102930006D49C1F8A402042000F08CFE0120694911
:1029400008606949C1F8A402042000F083FE10BDAC
:1029500010B500246248006820F4402060490860F7
:1029600008460068086001205E49091D086000F003
:1029700071FE01205C49C1F8A00200F06BFE07E087
:10298000601CC4B2FA2C03DDFFF7C3FF012010BDA9
:1029900054487C3800680028F2D15249086000BFD2
:1029A000F5E710B500204F4908604D48006820F455
:1029B00040204B4908600846006840F480200860C9
:1029C00000204949C1F8A402022000F043FE012082
:1029D00044490860022000F03DFE00204249C1F851
:1029E000A00210BD10B500203E4908603C480068B8
:1029F00020F440203A4908600846006840F48020EE
:102A0000086001203849C1F8A402022000F022FE2B
:102A1000012034490860022000F01CFE00203249E9
:102A2000C1F8A00210BD70B504462D48006820F41E
:102A300040202B4908600846006840F48020086068
:102A4000002028490860002517E0E0092549091DF4
:102A500008606006040E022000F0FCFD01202249FF
:102A6000C1F8A002022000F0F5FD00201D49086019
:102A7000022000F0EFFD681CC5B2082DE5DB70BD3B
:102A800070B5054600241648006820F4402014491B
:102A90000860084600680860002616E0002011491A
:102AA0000860022000F0D6FD01200F49C1F8A00205
:102AB0006006040E0B487C38006808B1601CC4B284
:102AC000012000F0C7FD701CC6B2082EE6DB15B968
:102AD000FFF788FF01E0FFF764FF204670BD0000AC
:102AE00000040240A0824042008040422DE9FF41A4
:102AF00004460F4615461E460121880301F0B9FA27
:102B00000121880301F00AFB00214FF4804001F00D
:102B100005FBADF80070ADF80240ADF80460002090
:102B2000ADF8060002200290ADF80C5069466148ED
:102B300002F090FC012202215E4802F006FE012113
:102B40005C4802F06FFDBDE8FF8170B505460024CA
:102B500000260A20B5FBF0F500BF09E004EB840075
:102B6000554931F81000A84200D103E0601CC4B2FE
:102B70000B2CF3D300BF002001F003F90B2C01D183
:102B8000012070BD04EB84024B4B03EB42029188A1
:102B900004EB840203EB4202508801F0EBF8474853
:102BA000006840F080604549086000BF4348006805
:102BB00000F000600028F9D004EB84003E4901EBEE
:102BC0004000C68804EB840001EB4000C08846EA60
:102BD000002646F40076374920310E800020D0E7E9
:102BE00070B590B004460E4615460121480501F027
:102BF000F7F9334802F0F2FE00BF314803F017F84E
:102C00000028FAD100902B480C300190029440200B
:102C100003900495002005904FF4806006904000DA
:102C20000790800008904011099040020A9000200F
:102C30000B900C900D900E906946214802F070FFA9
:102C4000002231461E4802F0CCFF01211C4802F050
:102C5000D4FF012210211A4803F029F80F208DF823
:102C60003C0000208DF83D008DF83E0001208DF8DD
:102C70003F000FA800F025FE10B070BD10B511493F
:102C80000F4803F031F8012806D10E490C4803F033
:102C900055F80D480068804710BD10B5012108485F
:102CA00002F078FF10BD10B50021054802F072FF58
:102CB00010BD000000380040143301080038024005
:102CC00070600240208000202800002070B505467A
:102CD0000C46FFF7FCFD3420FFF7A5FEFFF738FE9A
:102CE00008B1012070BDC4F3002141EA4501C8B21A
:102CF000FFF799FEFFF72CFE08B10220F2E7E0B2E1
:102D0000FFF791FEFFF724FE08B10320EAE7FFF783
:102D100000FEF44820F815400020E3E71CB501212F
:102D2000062001F05DF94FF44050009002208DF82C
:102D3000040000208DF8060003208DF80500012016
:102D40008DF807006946E84800F0ACFE4C20009082
:102D500002208DF8040000208DF8060003208DF875
:102D6000050001208DF807006946E04800F09AFE52
:102D700005220C21DC4800F020FF05220D21DA4855
:102D800000F01BFF05220321D84800F016FF0522A2
:102D90000621D64800F011FF06220221D34800F098
:102DA0000CFFFFF775FD00210846FFF78FFF044673
:102DB0000CB101201CBD1B210120FFF787FF4FF440
:102DC000D8710220FFF782FF6C210320FFF77EFFFE
:102DD00000210620FFF77AFF10212B20FFF776FF56
:102DE0004FF480712F20FFF771FF4FF48071302076
:102DF000FFF76CFF02213120FFF768FF08210A204E
:102E0000FFF764FF08210E20FFF760FF0020D1E7E5
:102E10000146B44830F81100704770B505460E46BB
:102E20000320FFF7F5FF044615B144F0030401E069
:102E300024F0030421460320FFF748FF0220FFF798
:102E4000E7FF044616B144F0030401E024F0030454
:102E500021460220FFF73AFF70BD70B5044604F02A
:102E600007042F20FFF7D4FF054625F0070545EAA4
:102E700004012F20FFF72AFF3020FFF7C9FF054686
:102E800025F0070545EA04013020FFF71FFF70BD5C
:102E900070B5044604F007042F20FFF7B9FF05467C
:102EA00025F0700545EA04112F20FFF70FFF3020B1
:102EB000FFF7AEFF054625F0700545EA0411302006
:102EC000FFF704FF70BD2DE9F04105460E46174699
:102ED0000220FFF79DFF044615B144F00C0401E009
:102EE00024F00C0421460220FFF7F0FE2C20FFF70F
:102EF0008FFF044615B144F0330401E024F033049D
:102F000021462C20FFF7E2FE1EB10520FFF7C0FF8F
:102F100002E00020FFF7BCFF1FB10720FFF79DFF75
:102F200002E00020FFF799FFBDE8F08170B506468A
:102F30000D4600240EB144F001041DB144F002041A
:102F400044F0140421463220FFF7C0FE214633200E
:102F5000FFF7BCFE70BD10B5044604F03F042146E7
:102F60002D20FFF7B3FE44F480712E20FFF7AEFE54
:102F700010BD70B504460D4604F0030405F00305CA
:102F8000E00040EA45110420FFF7A0FE70BD70B5D7
:102F900004460D4604F03F0405F03F050CB944F02B
:102FA00040040DB945F0400521463420FFF78EFE60
:102FB00045F480713520FFF789FE70BD10B50446D9
:102FC00004F03F040CB944F0400421463620FFF7DA
:102FD0007DFE44F480713720FFF778FE10BD10B5F8
:102FE000044604F00F0421462920FFF76FFE10BDB0
:102FF00070B505461220FFF70BFF044615B144F4E7
:10300000807401E024F4807421461220FFF75EFEF4
:1030100070BD70B506460C4606F00306182C00DDA0
:103020001824C4F11800C4B21220FFF7F1FE0546BF
:1030300005F4807545EA4615254329461220FFF719
:1030400045FE70BD70B505460C46002605F003052B
:10305000182C00DD1824C4F11800C4B246EA451645
:10306000264331461320FFF731FE70BD70B505468B
:103070000C46002605F00305182C00DD1824C4F1C9
:103080001800C4B246EA4516264331461420FFF71D
:103090001DFE70BD70B505460C46002605F0030503
:1030A000182C00DD1824C4F11800C4B246EA4516F5
:1030B000264331461520FFF709FE70BD70B5054661
:1030C0000C46002605F00305182C00DD1824C4F179
:1030D0001800C4B246EA4516264331461620FFF7CB
:1030E000F5FD70BD2C0000200004024000080240E5
:1030F00010B5FE4B19600023FD4CC4F89C32002231
:1031000015E00023FB4C236000F0800323B1012372
:10311000F84C1834236003E00023F64C1834236085
:103120000123F44C23604306180E531CDAB2082A1C
:10313000E7DB0123F04C2360F04CC4F8983210BD5B
:1031400030B500241CE004F1B001C8B20021FFF743
:10315000CFFF00210846FFF7CBFF00211020FFF72B
:10316000C7FF002508E0E64901EBC501085D012124
:10317000FFF7BEFF681CC5B2802DF4DB601CC4B233
:10318000082CE0DB30BD00B500218D20FFF7B0FF3B
:1031900000211420FFF7ACFF0021AF20FFF7A8FFAC
:1031A00000BD00B500218D20FFF7A2FF00211020F7
:1031B000FFF79EFF0021AE20FFF79AFF00BD30B55C
:1031C00000240CE0002506E00020CD4901EBC501FC
:1031D0000855681CC5B2802DF6DB601CC4B2082CF3
:1031E000F0DBFFF7ADFF30BDF0B5144600267F28B9
:1031F00001DC3F2900DDF0BD0B46CF1701EB57770F
:10320000FF10C7F10707FAB2CF1701EB5777FF108E
:10321000A1EBC707FDB2C5F107070123BB40DEB232
:103220004CB1B74B03EBC0039B5C3343B44F07EB8C
:10323000C007BB5408E0B24B03EBC0039B5CB34335
:10324000AF4F07EBC007BB5400BFD4E72DE9F047F1
:1032500006460F4690469946DDF820A034460CE01D
:103260003D4606E0524629462046FFF7BDFF681C52
:10327000C5B24D45F6DD601CC4B24445F0DDFFF734
:103280005FFFBDE8F0872DE9F84F80460F461646F0
:103290001C46BA462046E31704EB5373DB10214665
:1032A0004FEAE47C04EB5C7C4FEAEC0CA4EBCC0C26
:1032B000BCF1000F02D04FF0010C01E04FF0000C08
:1032C0006344224604EBD27C4FEA6C0C03FB0CF304
:1032D00003F0FF0BA6F12000C6B200254EE00C2C37
:1032E00007D106EB4600874901EB8000405D009066
:1032F00013E0102C05D1844800EB0610405D0090CF
:103300000BE0182C07D106EBC600804901EB8000CA
:10331000405D009001E0BDE8F88F4FF0000927E024
:10332000009800F0800028B1394640460A9AFFF71D
:103330005BFF09E00A9808B9012000E0002002467E
:1033400039464046FFF750FF00984006000E0090B7
:10335000781CC7B2A7EB0A00A04205D1574608F176
:10336000010000F0FF0806E009F1010000F0FF098C
:10337000B9F1080FD4DB00BF681CC5B25D45AEDBF8
:1033800000BFC8E710B50246012000E050430B0023
:10339000A1F10104E1B2F9D110BD2DE9FF4F81B0D7
:1033A000074691461E460E9D4FF0000A002439E064
:1033B000301B401EC1B20A20FFF7E4FFB9FBF0F05A
:1033C0000A21B0FBF1F201FB1208BAF1000F16D18D
:1033D000701EA04213DDB8F1000F0ED10120AB46E4
:1033E00005EBDB71491001FB04710090C8B22B465C
:1033F00020220299FFF747FF12E04FF0010A012057
:10340000AB4605EBDB71491001FB04710090C8B2BB
:1034100008F13001CAB22B460299FFF734FF00BF12
:10342000601CC4B2B442C3DB05B0BDE8F08FF8B590
:1034300006460F4615461C4621E004EBD4714910A0
:10344000C1F18001B14202DA00263819C7B2C4F1D5
:103450004000B84204DA002006460746FFF7AFFEF8
:10346000012000902A78234639463046FFF70BFFAB
:10347000204604EBD07106EB6101CEB26D1C2878BA
:103480007E2802DC28782028D7DAF8BD1CB5012177
:103490005F2000F0A5FD8020009001208DF8040041
:1034A00000208DF8060003208DF8050001208DF81E
:1034B00007006946164800F0F5FA82200090694638
:1034C000144800F0EFFA402000906946124800F0DE
:1034D000E9FA0120009069460E4800F0E3FA012065
:1034E0000449183108600D491AE0000098824142F1
:1034F00000804042840241429C824042008041421E
:10350000F815002082330108F6370108E63D01086E
:103510000004024000080240000C0240000041424A
:10352000C1F884023A4908603A49086000203A49E3
:103530000860642000F0D6F801203849C1F8800204
:103540000021AE20FFF7D4FD0021D520FFF7D0FDEC
:1035500000215020FFF7CCFD0021A820FFF7C8FD77
:1035600000213F20FFF7C4FD0021D320FFF7C0FD5D
:1035700000210846FFF7BCFD00214020FFF7B8FD01
:1035800000218D20FFF7B4FD00211420FFF7B0FDCE
:1035900000212020FFF7ACFD00210220FFF7A8FD4D
:1035A0000021A120FFF7A4FD0021C020FFF7A0FD0E
:1035B0000021DA20FFF79CFD00211220FFF798FD83
:1035C00000218120FFF794FD0021C020FFF790FD2E
:1035D0000021D920FFF78CFD0021F120FFF788FDA5
:1035E0000021DB20FFF784FD00213020FFF780FD64
:1035F0000021A420FFF77CFD0021A620FFF778FD25
:103600000021AF20FFF774FDFFF7D9FD1CBD0000BE
:103610009C824042988241428002414200004142E5
:1036200010B504466FF0040000F098F9E11704EBC0
:103630005171C1F3C701394A11701046007800EB8F
:103640004001C1EBC0104FF6FF7101EAC0003449E0
:10365000088010BD0146314A12784A434FF0E023FA
:103660005A6100229A611A46126942F001021A61F7
:1036700000BF4FF0E022106900F001021AB100F41F
:103680008032002AF5D04FF0E022126922F00102C8
:103690004FF0E0231A6100229A6170470146204AE8
:1036A00012884A434FF0E0235A6100229A611A4679
:1036B000126942F001021A6100BF4FF0E022106966
:1036C00000F001021AB100F48032002AF5D04FF068
:1036D000E022126922F001024FF0E0231A61002279
:1036E0009A61704770B504464FF4077094FBF0F090
:1036F000C6B24FF4077094FBF0F100FB114085B2A5
:1037000005E04FF40770FFF7C9FF701EC6B2002E28
:10371000F7D115B12846FFF7C1FF70BDA00000200A
:10372000A2000020014600BF704700BF4E4A128829
:1037300002F04002002AF9D0C2B24B4B9A80704787
:1037400010B588B004460121084600F049FC01216B
:10375000102000F09FFC07220921444800F02DFAB8
:1037600007220A21414800F028FA4FF4C060069071
:1037700002208DF81C008DF81D0000208DF81E0021
:1037800001208DF81F0006A9384800F08BF902943B
:103790000020ADF80C00ADF80E00ADF81000ADF84B
:1037A00014000C20ADF8120002A92F4800F0D3FD40
:1037B00001212D4800F057FE40212B4800F03BFF2F
:1037C000012240F22551284800F003FF25208DF802
:1037D000040003208DF805008DF8060001208DF807
:1037E000070001A800F06DF808B010BD10B540F258
:1037F00025511D4800F028FF10B31B4800F062FE61
:10380000C4B21B48008800F40040C8B918480088BA
:1038100000F4804060B10A2C03D0002014490880D5
:1038200020E01348008840F400401149088019E066
:103830000D2C06D10E48008840F480400C490880C9
:1038400010E00B480088C0F30D000A490C540848EA
:103850000088401C0649088008460088C72801DD0A
:103860000020088010BD0000001001400000024050
:10387000A8000020F819002009488047094800479F
:10388000FEE7FEE7FEE7FEE7FEE7FEE7FEE7FEE710
:10389000FEE7FEE704480549054A064B704700006D
:1038A0000D0400088901000800C5012000CB01209B
:1038B00000C7012000C7012032490143324A11608C
:1038C000704770B5002100230F22C4781CB32E4C22
:1038D000246804F4E064C4F5E064C4F30721C1F192
:1038E0000404E3B20A4144789C40E1B28478144075
:1038F00021430C07210E254C05786155047804F00E
:103900001F050124AC4005786D11AD0005F1E025DF
:10391000C5F8004109E0047804F01F050124AC401B
:103920001B4D0678761145F8264070BD194A0A40AD
:103930000243154B1B1F1A60704739B1124A121D02
:1039400012680243104B1B1D1A6006E00E4A121D3E
:10395000126882430C4B1B1D1A607047042808D163
:103960004FF0E021096941F004014FF0E0221161BC
:1039700007E04FF0E021096921F004014FF0E02257
:10398000116170470000FA050CED00E000E400E072
:1039900080E100E080FFFF1F10B504469848844294
:1039A00008D10121084600F086FB0021012000F02B
:1039B00082FB76E09348844208D10121022000F086
:1039C0007AFB0021022000F076FB6AE08E488442F8
:1039D00008D10121042000F06EFB0021042000F03A
:1039E0006AFB5EE08948844208D10121082000F08A
:1039F00062FB0021082000F05EFB52E08448844214
:103A000008D10121102000F056FB0021102000F009
:103A100052FB46E07F48844208D10121202000F07B
:103A20004AFB0021202000F046FB3AE07A4884421D
:103A300008D10121402000F03EFB0021402000F091
:103A40003AFB2EE07548844208D10121802000F025
:103A500032FB0021802000F02EFB22E070488442DF
:103A600008D10121801500F026FB0021A01500F0EF
:103A700022FB16E06B48844208D10121401500F07A
:103A80001AFB0021601500F016FB0AE0664884422C
:103A900007D10121001500F00EFB0021201500F0D8
:103AA0000AFB10BDF0B50A4600210023002400BF28
:103AB0003DE0012505FA01F3156805EA03049C427F
:103AC00034D105684F000326BE40B5430560157923
:103AD0004E00B5400668354305601579012D02D0CA
:103AE0001579022D16D185684F000326BE40B543D7
:103AF000856055794E00B5408668354385604568D8
:103B000001268E40B5434560456896798E40B6B231
:103B100035434560C5684F000326BE40B543C560C8
:103B2000D5794E00B540C6683543C560491C10299B
:103B3000BFD3F0BD4FF6FF710160002101714171EB
:103B40008171C171704708B54FF480320092009ABC
:103B50000A430092009AC261C161009AC261C269BF
:103B60000092C269009208BD0246002013690B4012
:103B70000BB1012000E0002070470146086980B2C7
:103B800070470246002053690B400BB1012000E052
:103B9000002070470146486980B270470183704732
:103BA000418370470AB1018300E04183704741615E
:103BB000704742694A4042617047F0B500230024D3
:103BC0004D07ED0E02FA05F3CE1000F1200555F871
:103BD00026504E07F70E0F26BE40B543CF1000F11A
:103BE000200646F82750CE1000F1200555F8265043
:103BF00045EA0304CE1000F1200545F82640F0BD4B
:103C0000000002400004024000080240000C024094
:103C1000001002400014024000180240001C024044
:103C2000002002400024024000280240F9480068B9
:103C300040F00100F74908600020F64908310860AB
:103C4000F4480068F4490840F2490860F348091D47
:103C50000860F348EF4984310860F0481038091DC6
:103C60000860EC48006820F48020EA4908600020E1
:103C7000E8490C310860E7498C3108607047002141
:103C8000E44A921C117011460870704710B5014645
:103C90000022002300204A11012A02D1DD4C2368B2
:103CA00008E0022A03D1DB4C7034236802E0D94CCF
:103CB0007434236801F01F02012494401C400CB1AD
:103CC000012000E0002010BD38B500200090002445
:103CD000002500BF3120FFF7D9FF05460098401CA2
:103CE00000900098B0F5A04F01D0002DF2D0312007
:103CF000FFF7CCFF08B1012400E00024204638BDC6
:103D000001460020C34A106820F0F80040EAC100D4
:103D100010607047C349086070470021BD4A703287
:103D200011701170012802D004280AD104E0012189
:103D3000B84A7032117005E00521B64A7032117030
:103D400000E000BF00BF7047B7490860704770B51A
:103D5000049C41EA82150126C6EB530645EA064556
:103D6000054345EA0465AB4E361D356070BDAD496F
:103D700008667047820142EA0172A64B84331A60DA
:103D80007047A8498866704710B5830143EA01630C
:103D900043EA02739F4C8834236010BDA149086731
:103DA0007047A049C864704702460020994B083309
:103DB000186820F0EC6042EA01031843954B083381
:103DC0001860704702460020924B0833186820F0B4
:103DD000784042EA010318438E4B0833186070475D
:103DE000014600208B4A0832106820F00300084387
:103DF0001060704787480830006800F00C0070477A
:103E000001460020834A0832106820F0F000084381
:103E100010607047014600207E4A0832106820F486
:103E2000E05008431060704701460020794A08328C
:103E3000106820F4604040EAC10010607047F0B59F
:103E4000002100220024022500260223714F08379A
:103E50003F6807F00C0121B1042905D0082937D1AA
:103E600005E0724F076036E0714F076033E0694F3D
:103E70003F1D3F68C7F38056664F3F1D3F6807F000
:103E80003F036EB16A4FB7FBF3F7DFF888C10CF15F
:103E9000040CDCF800C0CCF3881C07FB0CF40CE02D
:103EA000624FB7FBF3F7DFF86CC10CF1040CDCF8E0
:103EB00000C0CCF3881C07FB0CF4564F3F1D3F6835
:103EC000C7F301477F1C7D00B4FBF5F7076002E0F4
:103ED000564F076000BF00BF4E4F08373F6807F0DE
:103EE000F0010909534F7A5C0768D7404760494F92
:103EF00008373F6807F4E051890A4E4F7A5C4768FB
:103F0000D7408760434F08373F6807F46041490B4B
:103F1000484F7A5C4768D740C760F0BD002100F485
:103F20004072B2F5407F0AD13A4A0832116821F452
:103F3000F811414A02401143364A08321160354AAD
:103F400070321268C0F30B031A43324B70331A609D
:103F50007047354944390860704733494039086033
:103F6000704736490860704701460020294A8C3264
:103F7000106820F01F004A1E1043264A8C32106041
:103F8000704701460020234A8C32106820F4F85014
:103F90004A1E40EA02201F4A8C32106070470146D8
:103FA00000201C4A8C32106820F440100843106036
:103FB000704701460020174A8C32106820F44000F8
:103FC00008431060704701460020124A8C32106886
:103FD00020F440300843106070471949086070476A
:103FE00039B10C4A3032126802430A4B30331A603E
:103FF00006E0084A303212688243064B30331A60BA
:104000007047F9B1034A343212680243014B34332A
:104010001A601CE000380240FFFFF6EA103000246E
:104020000030002000004742800E47420024F40088
:1040300000127A00AA000020FFFCFF0F5C0147423B
:10404000E01147428F4A126882438E4B1A607047D4
:1040500039B18C4A121D126802438A4B1B1D1A602B
:1040600006E0884A121D12688243864B1B1D1A60A7
:10407000704739B1834A0C3212680243814B0C33CA
:104080001A6006E07F4A0C32126882437D4B0C3383
:104090001A60704739B17B4A103212680243794B7B
:1040A00010331A6006E0774A103212688243754B6B
:1040B00010331A60704739B1724A243A12680243C9
:1040C000704B243B1A6006E06E4A243A1268824321
:1040D0006C4B243B1A60704739B16A4A203A126827
:1040E0000243684B203B1A6006E0664A203A126899
:1040F0008243644B203B1A60704739B1614A1C3AD5
:10410000126802435F4B1C3B1A6006E05D4A1C3A92
:10411000126882435B4B1C3B1A60704739B1594AA5
:10412000143A12680243574B143B1A6006E0554A92
:10413000143A12688243534B143B1A60704739B1EA
:10414000504A103A126802434E4B103B1A6006E088
:104150004C4A103A126882434A4B103B1A6070472F
:1041600039B1484A1C3212680243464B1C331A606C
:1041700006E0444A1C3212688243424B1C331A60E8
:10418000704739B13F4A2032126802433D4B203319
:104190001A6006E03B4A203212688243394B2033D2
:1041A0001A60704739B1374A243212680243354BDE
:1041B00024331A6006E0334A243212688243314BBA
:1041C00024331A60704739B12E4A2C3212680243E8
:1041D0002C4B2C331A6006E02A4A2C321268824398
:1041E000284B2C331A60704739B1264A3032126896
:1041F0000243244B30331A6006E0224A3032126800
:104200008243204B30331A607047012808D11D4982
:104210003C31096841F008011A4A3C32116007E05C
:1042200018493C31096821F00801164A3C321160F6
:10423000704739B1134A273A12780243114B273B92
:104240001A7006E00F4A273A127882430D4B273B3B
:104250001A7070470B484030006840F08070094980
:1042600040310860704701460020064A283A12682B
:104270000A400AB1012000E00020704701492639B8
:10428000087070473438024010B50446FA4884423A
:1042900008D101211020FFF752FF00211020FFF765
:1042A0004EFF57E0F548844209D101214804FFF749
:1042B00035FF00214FF40030FFF730FF4AE0F048AF
:1042C000844209D101218804FFF728FF00214FF41F
:1042D0008020FFF723FF3DE0EA48844209D1012115
:1042E000C804FFF71BFF00214FF40020FFF716FF63
:1042F00030E0E548844209D101210805FFF70EFFAF
:1043000000214FF48010FFF709FF23E0DF488442CB
:1043100008D101212020FFF712FF00212020FFF704
:104320000EFF17E0DA48844209D101218807FFF720
:10433000F5FE00214FF08040FFF7F0FE0AE0D5487F
:10434000844207D101214005FFF7E8FE0021600506
:10435000FFF7E4FE10BD2DE9FF4705460E46002499
:10436000A14600BFA046B08900B100BF2C8A24F44A
:104370004054F08804432C82AC8941F20C608443A1
:10438000B08831890843718908430443AC81AC8A01
:1043900024F44074B0890443AC826846FFF74FFDB3
:1043A000B548854202D0B948854202D1DDF80C906B
:1043B00001E0DDF80890A88900F4004040B109EB65
:1043C000C90000EB091031684900B0FBF1F707E0C4
:1043D00009EBC90000EB091031688900B0FBF1F767
:1043E0006420B7FBF0F004012009642101FB107880
:1043F000A88900F4004040B1322000EBC800B0FBB7
:10440000F1F000F00700044308E0322000EB081050
:104410006421B0FBF1F000F00F0004432C81BDE8F3
:10442000FF874FF41651016000218180C180018116
:104430000C21418100218181704710B50246002086
:10444000108A20F470600B884C8823438C882343A7
:10445000CC8823431843108210BD00210180418085
:104460008180C180704721B1828942F400528281EB
:1044700004E082894DF6FF731A4082817047028BF7
:1044800002F47F420283028B0A430283704721B108
:10449000828942F40042828103E08289C2F30E02E3
:1044A0008281704721B1828A42F40062828204E0F4
:1044B000828A4FF2FF731A4082827047C1F308026A
:1044C0008280704701468888C0F308007047028ADE
:1044D0004FF6F0731A400282028A0A430282704742
:1044E00021B1828942F00202828104E082894FF682
:1044F000FD731A408281704782894FF2FF731A4020
:10450000828182890A4382817047028A4FF6DF7373
:104510001A400282028A0A430282704721B1028A4B
:1045200042F48042028204E0028A4BF6FF731A4092
:1045300002827047818941F001018181704721B178
:10454000828A42F00802828204E0828A4FF6F77380
:104550001A4082827047028BD2B20283028B42EAF7
:1045600001220283704721B1828A42F020028282B6
:1045700004E0828A4FF6DF731A408282704721B1CD
:10458000828A42F01002828204E0828A4FF6EF7340
:104590001A4082827047828A4FF6FB731A408282E9
:1045A000828A0A438282704721B1828A42F00202E3
:1045B000828204E0828A4FF6FD731A40828270473D
:1045C0001AB1838A0B43838202E0838A8B438382FE
:1045D0007047F0B50346002400260025002040F671
:1045E0006A17B94200D100BF1846C1F3421401F066
:1045F0001F06012707FA06F5012C01D10C3004E053
:10460000022C01D1103000E014301AB107682F439A
:10461000076002E00768AF430760F0BD0246002074
:10462000B1F5007F00D100BF13880B400BB1012012
:1046300000E00020704701F40072B2F5007F00D165
:1046400000BFCA430280704770B5024600240023B1
:104650000025002040F66A16B14200D100BFC1F328
:10466000421501F01F03012606FA03F3012D13D1B1
:104670009689334017E000000010014000440040DC
:1046800000480040004C0040005000400014014031
:1046900000780040007C0040022D02D1168A334091
:1046A00001E0968A33400C12012606FA04F41688BB
:1046B000344013B10CB1012000E0002070BD10B5F2
:1046C0000022002340F66A14A14200D100BF0A1262
:1046D00001249440A3B2DC43048010BD10B504460D
:1046E000FE48844208D101210846FFF728FD002139
:1046F0000120FFF724FD9DE0B4F1804F08D1012196
:104700000846FFF70BFD00210120FFF707FD91E0B0
:10471000F348844208D101210220FFF7FFFC002169
:104720000220FFF7FBFC85E0EE48844208D101211E
:104730000420FFF7F3FC00210420FFF7EFFC79E0F1
:10474000E948844208D101210820FFF7E7FC002155
:104750000820FFF7E3FC6DE0E448844208D1012122
:104760001020FFF7DBFC00211020FFF7D7FC61E0F1
:10477000DF48844208D101212020FFF7CFFC00212F
:104780002020FFF7CBFC55E0DA48844208D1012114
:104790000220FFF7D4FC00210220FFF7D0FC49E003
:1047A000D548844209D101210804FFF7C8FC002143
:1047B0004FF48030FFF7C3FC3CE0D048844209D17D
:1047C00001214804FFF7BBFC00214FF40030FFF744
:1047D000B6FC2FE0CA48844209D101218804FFF7C2
:1047E000AEFC00214FF48020FFF7A9FC22E0C54871
:1047F000844208D101214020FFF790FC0021402095
:10480000FFF78CFC16E0C048844208D101218020CB
:10481000FFF784FC00218020FFF780FC0AE0BB4802
:10482000844207D101218015FFF778FC0021A015F3
:10483000FFF774FC10BD00220288A84B98420ED0EE
:10484000AC4B98420BD0B0F1804F08D0A44B9842AB
:1048500005D0A44B984202D0A34B984204D14FF606
:104860008F731A404B881A43A04B984207D0A04B35
:10487000984204D04FF6FF431A400B891A43028036
:104880004B68C3620B880385944B984202D0994BC6
:10489000984201D18B7A03860123838270474FF0BF
:1048A000FF314160002101800181418081727047A8
:1048B0000185828270470A46002101884FF68F7376
:1048C000194011430180704741627047C1627047CF
:1048D0000146486A70470146088D704721B1028839
:1048E00042F00202028004E002884FF6FD731A4093
:1048F0000280704721B1028842F00402028004E085
:1049000002884FF6FB731A400280704721B102887B
:1049100042F08002028004E002884FF67F731A4062
:104920000280704702884FF6F7731A4002800288AF
:104930000A430280704702884FF6FF431A40028004
:1049400002880A430280704721B1028842F00102C6
:10495000028004E002884FF6FE731A40028070471E
:1049600070B5002400220023058C4FF6FE763540FA
:104970000584028C8388048B4FF68F752C40B51EFE
:104980002C400D882C43751E2A408D892A434D8862
:104990002A43524DA84202D0564DA84213D14FF699
:1049A000F7752A40CD892A434FF6FB752A408D883A
:1049B0002A434FF6FF652B404FF6FF552B400D8ADB
:1049C0002B434D8A2B43838004838D684563028487
:1049D00070BD70B5002400220023058C4FF6EF76E1
:1049E00035400584028C8388048B48F6FF752C4083
:1049F0004FF6FF452C400D884FF6FF7606EA052559
:104A00002C434FF6DF752A408D8906EA05152A43A7
:104A10004D8806EA05152A43304DA84202D0354D8F
:104A2000A8421DD14FF67F752A40CD894FF6FF76FB
:104A300006EA05152A434FF6BF752A408D8806EA17
:104A400005152A434FF6FF352B404FF2FF752B40DB
:104A50000D8A06EA85052B434D8A06EA85052B4318
:104A6000838004838D688563028470BD70B50024E3
:104A700000220023058C4FF6FF6635400584028C2A
:104A80008388848B4FF68F752C404FF6FC752C4035
:104A90000D882C434FF6FF552A408D894FF6FF763F
:104AA00006EA05252A434D8806EA05252A430B4DCB
:104AB000A84202D00F4DA84238D14FF2FF752A40CC
:104AC000CD894FF6FF7606EA05252A434FF6FF35D6
:104AD0002A408D8806EA05252A4319E00000014096
:104AE0000004004000080040000C0040001000409E
:104AF0000014004000040140004001400044014017
:104B00000048014000180040001C00400020004008
:104B10004EF6FF752B404DF6FF752B400D8A06EAC9
:104B200005152B434D8A06EA05152B4383808483A4
:104B30008D68C563028470BD70B500220023002417
:104B4000058C4EF6FF7635400584038C8488828B75
:104B500048F6FF752A404FF6FF452A400D884FF66C
:104B6000FF7606EA05252A434DF6FF752B408D8911
:104B700006EA05352B434D8806EA05352B43FE4DE5
:104B8000A84202D0FD4DA84208D14BF6FF752C403B
:104B90000D8A4FF6FF7606EA85152C4384808283C2
:104BA0008D680564038470BD00210180418081808F
:104BB00081608181C18101824182704770B5034665
:104BC000002000241846183001258D40ACB21D8C01
:104BD000A5431D8409B108290AD100EB61000568CD
:104BE0004FF68F76354005600568154305600FE088
:104BF0000D1FC5F34E052844056848F6FF7635407D
:104C0000056005684FF6FF7606EA02263543056023
:104C100070BD4163704781637047C1637047016431
:104C200070470A460021018B4FF68F7319401143DC
:104C3000018370470A460021018B48F6FF73194033
:104C40004FF6FF7303EA02231943018370470A46B4
:104C50000021818B4FF68F73194011438183704778
:104C60000A460021818B48F6FF7319404FF6FF7307
:104C700003EA02231943818370470A460021018B0E
:104C80004FF6F77319401143018370470A4600211C
:104C9000018B4FF2FF7319404FF6FF7303EA0223B3
:104CA0001943018370470A460021818B4FF6F77341
:104CB00019401143818370470A460021818B4FF2CE
:104CC000FF7319404FF6FF7303EA022319438183F0
:104CD00070470A460021018B4FF6FB7319401143C0
:104CE000018370470A460021018B4FF6FF331940BC
:104CF0004FF6FF7303EA02231943018370470A4604
:104D00000021818B4FF6FB7319401143818370475B
:104D10000A460021818B4FF6FF3319404FF6FF738F
:104D200003EA02231943818370470A460021018B5D
:104D30004FF67F7319401143018370470A460021E3
:104D4000018BC1F30E014FF6FF7303EA02231943EF
:104D5000018370470A460021818B4FF67F7319400B
:104D60001143818370470A460021818BC1F30E01F4
:104D70004FF6FF7303EA02231943818370470A4603
:104D80000021018C4FF6FD731940114301847047D7
:104D90000A460021018C4FF6F77319401143018434
:104DA00070470A460021018C4FF6DF7319404FF619
:104DB000FF7303EA02131943018470470A46002176
:104DC000018C4FF67F7319404FF6FF7303EA02130D
:104DD0001943018470470A460021018C4FF6FF53A6
:104DE00019404FF6FF7303EA022319430184704709
:104DF0000A460021018C4FF2FF7319404FF6FF73F2
:104E000003EA02231943018470470A460021018CFA
:104E10004DF6FF7319404FF6FF7303EA023319434F
:104E20000184704730B5002301248C40A3B2048C68
:104E30009C430484048C02FA01F5ADB22C43048433
:104E400030BD30B5002304248C40A3B2048C9C43B5
:104E50000484048C02FA01F5ADB22C43048430BD05
:104E6000828B4FF2FF331A408283828B4FF6FF739F
:104E700003EA01231A4382837047F0B50C461546B6
:104E8000002100220026078C4EF6FF7C07EA0C0763
:104E90000784818B028C4FF6FF7707EA043640F6D1
:104EA000FF4739404FF6FF7707EA052739434FF6AA
:104EB000FF7707EA0337394345F6FF773A4046F470
:104EC00080573A4381830284F0BD828B4FF6F3739F
:104ED0001A408283828B0A4382837047F0B50C4666
:104EE0001546002100220026078C4FF6FF6C07EACA
:104EF0000C070784818B028C4FF6FF7707EA0426A4
:104F00004FF60C7739404FF6FF7707EA03172F4328
:104F100039434FF2FF573A4046F480773A43818352
:104F20000284F0BD028B4FF2FF331A400283028BE2
:104F30004FF6FF7303EA01231A4302837047F0B56B
:104F40000C461546002100220026078C4FF6EF7C08
:104F500007EA0C070784018B028C4FF6FF7707EAFC
:104F6000041640F6FF4739404FF6FF7707EA03374C
:104F700039434FF6FF7703E0000001400004014091
:104F800007EA052739434FF65F773A4046F01007A6
:104F90003A4301830284F0BD028B4FF6F3731A404B
:104FA0000283028B0A4302837047F0B50C46154614
:104FB00000210022068C4FF6FE773E400684018BCE
:104FC000028C4FF60C7631407E1C06EA03162E4307
:104FD00031434FF6F576324044F001063243018307
:104FE0000284F0BD70B505460C46208850B923896F
:104FF000A28861882846FFF7D8FFE1882846FFF796
:10500000CBFF25E0208804280AD12389A288618863
:105010002846FFF794FFE1882846FFF783FF17E053
:10502000208808280AD12389A28861882846FFF7AA
:1050300055FFE1882846FFF748FF09E02389A28849
:1050400061882846FFF719FFE1882846FFF708FF27
:1050500070BD002101804180012181800021C1803B
:10506000018170472DE9F04105460C4600260127D5
:10507000608808B9022600E00026A088012801D136
:10508000022700E001272088A0B92389A28861882F
:105090002846FFF78AFFE1882846FFF77DFF23892E
:1050A0003A4631462846FFF74AFFE1882846FFF78F
:1050B00039FF13E02389A28861882846FFF73FFF64
:1050C000E1882846FFF72EFF23893A4631462846D5
:1050D000FFF76BFFE1882846FFF75EFFBDE8F08130
:1050E0000146486B70470146886B70470146C86BA4
:1050F00070470146086C70470A884B881A438B88B2
:105100001A43CB881A430B891A434B891A438B895C
:105110001A43A0F84420704700210180418081801B
:10512000C180018141818181704731B1B0F8442053
:1051300042F40042A0F8442005E0B0F84420C2F355
:105140000E02A0F84420704721B1828842F0040288
:10515000828004E082884FF6FB731A408280704799
:1051600021B1828842F00102828004E082884FF6F9
:10517000FE731A40828070471AB183890B43838182
:1051800002E083898B4383817047818270470246A6
:105190000020138A0B400BB1012000E00020704773
:1051A000CA430282704730B5024600200023002423
:1051B000158A05EA0103958905EA010413B10CB1CA
:1051C000012000E0002030BDCA430282704741EA5E
:1051D0000203A0F8483070471AB183890B438381DA
:1051E00002E083898B438381704721B1828842F03A
:1051F0000802828004E082884FF6F7731A408280AA
:10520000704701894FF6F8721140018170470A46D4
:10521000002101894FF68F731940114301817047B6
:1052200030B504460D4629462046FFF7F0FF208999
:1052300040F00700208130BD2DE9F04104460D46C5
:1052400016461F46602D06D13B46012231462046B8
:10525000FFF775FE05E03B46012231462046FFF789
:10526000A4FE29462046FFF7D2FF208940F0070020
:105270002081BDE8F08130B50C4600210189C9B21A
:105280004FF6FF7505EA03251543254329430181A0
:1052900030BD2DE9F04105460E46174698460024DC
:1052A00043463A4631462846FFF7E5FF2C894FF63C
:1052B000F870044044F007044FF68F70044044F047
:1052C00070042C81BDE8F081F0B504460D46164609
:1052D0001F463B46324629462046FFF7CCFF208931
:1052E00040F480402081F0BD82884FF68F731A40D1
:1052F000828082880A438280704702894FF6F87361
:105300001A40028102890A430281704702894FF6DE
:105310007F731A40028102890A4302817047F0B507
:105320000C4615461E460021002200230189028BEF
:10533000038C4FF6F877394021434FF6FC473A404B
:1053400040F201173A434FF6DD773B404FF6FF77C7
:1053500007EA06172F433B43018102830384F0BD14
:1053600021B1828842F08002828004E082884FF678
:105370007F731A4082807047A0F850107047000079
:1053800010B50446FB48844208D101218014FEF781
:10539000D6FE0021A014FEF7D2FE3CE0F64884427F
:1053A00008D101210014FEF7B9FE00212014FEF7F8
:1053B000B5FE30E0F148844208D10121C013FEF768
:1053C000ADFE0021E013FEF7A9FE24E0EC48844284
:1053D00008D101214014FEF7B2FE00216014FEF74F
:1053E000AEFE18E0E748844209D101210805FEF726
:1053F000A6FE00214FF48010FEF7A1FE0BE0E2486C
:10540000844208D101214805FEF799FE00214FF49E
:105410000010FEF794FE10BD10B50022028802F4C1
:1054200041520B884C8823438C882343CC882343E8
:105430000C8923434C8923438C892343CC89234300
:105440001A430280838B4FF2FF74234083830B8ABD
:10545000038210BD2DE9F04F0025022300244FF0F8
:10546000010900220026002794469046B0F81CA0AF
:105470004FF2400B0AEA0B0AA0F81CA04FF0020AF8
:10548000A0F820A0858BD1F808A0BAF1020F01D1B5
:1054900000BF82E0B1F804A0BAF1000F02D14FF0D2
:1054A000010901E04FF00209DFF8E0A2DAF800A0FC
:1054B0000AF4000ABAF1000F09D0DFF8D0A2DAF836
:1054C00000A02AF4000ADFF8C4B2CBF800A0DFF88D
:1054D000BCA20AF17C0ADAF800A0CAF3881CDFF843
:1054E000ACA20AF17C0ADAF800A0CAF30278DFF86D
:1054F0009CA2AAF1040ADAF800A00AF03F07DFF83C
:105500008CA2AAF1040ADAF800A00AF4800ABAF51B
:10551000800F08D1DFF878A2BAFBF7FA0AFB0CFA81
:10552000BAFBF8F607E0DFF86CA2BAFBF7FA0AFB61
:105530000CFABAFBF8F6B1F806A0BAF5007F0ED166
:105540004FEA162A0AEB8A0A4FEA4A0AD1F808B04B
:10555000BAFBFBFA0AF1050A1FFA8AF20FE04FEADA
:10556000491AB6FBFAFA0AEB8A0A4FEA4A0AD1F854
:1055700008B0BAFBFBFA0AF1050A1FFA8AF24FF0EB
:105580000A0AB2FBFAF202F00104A2EB040ACAF31F
:105590004F034FF6FF7A0AEA0424022B01DBFF2BAC
:1055A00001DD02230024B1F806A04AEA040A4AEA0F
:1055B000030AA0F820A0B1F804A0B1F80CB04AEAA0
:1055C0000B0AB1F802B04AEA0B0AB1F800B04AEA95
:1055D0000B0A4AF4006A4AEA05058583BDE8F08FA4
:1055E0000021018041808180C180018141818181D0
:1055F000C1810721018270470021018041808180A3
:10560000C1800221816000218181704721B102881F
:1056100042F04002028004E002884FF6BF731A4055
:105620000280704721B1828B42F48062828304E061
:10563000828B4FF6FF331A408283704702884FF205
:10564000FF731A40028002880A4302807047B1F556
:10565000804F04D1028842F48042028004E0028834
:105660004BF6FF731A40028070474FF6FF6291427B
:1056700004D0028842F48072028004E002884FF66F
:10568000FF631A400280704721B1828842F0040211
:10569000828004E082884FF6FB731A408280704754
:1056A00021B1828842F01002828004E082884FF6A5
:1056B000EF731A408280704730B500220023848B3C
:1056C0004FF240052C40848302240484828B0C8892
:1056D000B4F5007F01D00C8814B94FF4807308E052
:1056E0000C88B4F5407F03D00C88B4F5807F00D1DE
:1056F00000238C888D892C434D882C431C4344F413
:1057000000642243828330BD0146888970478181CD
:10571000704721B1028842F40052028004E00288FE
:105720004DF6FF731A4002807047018841F48051A2
:105730000180704702460020012901D0108B00E053
:10574000908A70470146088A70471AB183880B43D4
:10575000838002E083888B438380704730B50024C8
:1057600000230C110125A540ABB2AAB185881D43C9
:10577000858014E00030014000380040003C0040CB
:1057800000340140005001400054014008380240FC
:1057900000127A000024F40085889D43858030BD86
:1057A0000246002013890B400BB1012000E00020CD
:1057B0007047CA4302817047F0B5024600200024BA
:1057C0000023002501F00F070126BE40B4B20B11E3
:1057D00001269E40B3B2968806EA03051689264044
:1057E00016B10DB1012000E00020F0BD10B500227F
:1057F00001F00F040123A3409AB2D343038110BDEB
:1058000010B50121C802FEF79AFC00214FF4006098
:10581000FEF795FC10BD00216C4A116847F6FF6247
:105820009143027D83681A4343681A43C3681A434D
:1058300003681A4303691A431143644A11607047AD
:1058400000210175016041608160C16001617047A4
:105850005F49086070475D49091F086070475B48F1
:10586000001F006800F0030070470021574B1B1D0C
:1058700002681A601A1D11686FF30A01D0E901234A
:105880001A43C3681A4303691A4311434F4A083243
:10589000116070470021016041608160C160016159
:1058A00070474A480C300068C0B2704708B50146DE
:1058B000002000904548103008440090009800688F
:1058C00008BD0021414B203302681A601B1D42684D
:1058D0001A601A1D116821F0F701D0E902231A435A
:1058E00003691A4343691A431143384A2832116045
:1058F00070474FF0FF310160002141608160C1605D
:1059000001614161704731482C30006870472F4871
:105910007C30006870472D497C31086070472B4807
:105920004430006870472B49086070472949091DB9
:1059300008607047274908310860704725490C31D5
:10594000086070472449086070472349091D0860B2
:10595000704701218143204A0832116070471E4977
:105960000C31086070471B4914390860704739B121
:10597000164A383212680243144B38331A6006E074
:10598000124A383212688243104B38331A6070471B
:10599000014600200D4A303212680A400AB1012047
:1059A00000E0002070470949343108607047014623
:1059B0000020064A303212680A400AB1012000E095
:1059C000002070470149343108607047042C0140C1
:1059D000A0802542A0852542AC812542016821F0A6
:1059E000010101600021016041608160C1600161CD
:1059F00021214161DB49884204D13D21D94A103A35
:105A000091608CE0D7491831884205D14FF4746118
:105A1000D44A103A916082E0D2493031884205D1AF
:105A20004FF47411CF4A103A916078E0CD49483173
:105A3000884205D14FF07461CA4A103A91606EE015
:105A4000C8496031884204D1C749C64A103AD1607A
:105A500065E0C4497831884204D1C449C14A103A4A
:105A6000D1605CE0BF499031884204D1C049BD4A51
:105A7000103AD16053E0BB49A831884205D14FF0BC
:105A80003D51B84A103AD16049E0BA49884204D140
:105A90003D21B84A083A116041E0B64918318842C0
:105AA00005D14FF47461B34A083A116037E0B14947
:105AB0003031884205D14FF47411AE4A083A116072
:105AC0002DE0AC494831884205D14FF07461A94AB4
:105AD000083A116023E0A7496031884204D1A24905
